:040000006F108048B5
:1000040000000000000000006F0080086F00604ED8
:1000140000000000000000000000000000000000DC
:1000240000000000000000000000000000000000CC
:100034006F004006000000006F00E00500000000B3
:100044006F0080056F0060056F0040056F0020059C
:100054006F0000056F00E0046F00C00400000000A2
:100064006F0060046F0040046F0020046F00000400
:100074006F00604F6F00C003000000006F0060035A
:100084006F0040036F0020036F0000036F00E00265
:1000940001A001A001A001A001A001A001A001A054
:1000A40001A001A001A001A001A001A001A001A044
:1000B40001A001A001A001A001A001A0B717004068
:1000C400130770052380E704130780FA2380E704ED
:1000D4002396A70223800704371700408347270588
:1000E400898BEDDF835707053717004083472705C2
:1000F400898BEDFF3717004083472705898BEDDF98
:100104000355070582804111814601468145114509
:1001140006C63D23B727004011472383E780B7F77E
:1001240000E003A707D16D9B23A8E7D003A707D15D
:100134005D9B23A8E7D07300501001000100B2407A
:10014400410182804111814681450146114506C61F
:10015400C529B727004011472383E780B71700401C
:1001640003C7E70283C5E70483D787039166137740
:10017400F70F93E5350063E5D700719B136717000C
:10018400B7170040130670052380C704930680FA4E
:100194002380D704238207022380C7042380D70443
:1001A4002387E7022387B7042380C7042380D70467
:1001B40003C7B70413670702A385E7042380070472
:1001C40037F700E0832507D193E545002328B7D00E
:1001D400832507D1DD992328B7D07300501001007F
:1001E40001002380C7042380D70403C7B70413770F
:1001F400F70DA385E70423800704B2404101828000
:10020400411122C4814681452A840146114506C60E
:100214000529B727004011472383E780B71700401B
:1002240003C7E70283C5E70483D78703916613777F
:10023400F70F93E5350063E5D700719B136717004B
:10024400B7170040130670052380C704930680FA8D
:100254002380D704238207022380C7042380D70482
:100264002387E7022387B7042380070437F700E0D6
:10027400832507D193E545002328B7D02380C704FD
:100284002380D70483C5F70093E50504A387B7004B
:100294002380C7042380D70483C5B70493E50502EC
:1002A400A385B704E57591054D8C2380C7044204EA
:1002B4002380D704418023908702832507D1DD99C9
:1002C4002328B7D073005010010001002380C70415
:1002D4002380D70403C7B704130560041377F70D0D
:1002E400A385E704238007042244B240410189A482
:1002F40001114EC681460146AA898145114506CEA3
:1003040022CC26CA4AC82D2EB72700401147238382
:10031400E780B716004083C7E60203C7E60483D626
:100324008603116693F7F70F1367370063E5C6007A
:10033400F19B93E71700371400401309700523005D
:100344002405930480FA2300940423020402230066
:100354002405230094042307F4022307E404230060
:10036400040413055002A128B7F700E003A707D13E
:100374001367470023A8E7D023002405230094042F
:100384000347F40013670704A307E40023002405CC
:10039400256723009404B3E9E9002310340303A779
:1003A40007D15D9B23A8E7D0730050100100010022
:1003B400F2406244D2444249B24905618280B7178F
:1003C4000040930670052380D704130780FA238026
:1003D400E70403C6B7041376F60DA385C704238088
:1003E4000704137605022DC603C6A700118A0DE281
:1003F4002380D7042380E70403C7A70013674700BB
:100404002385E7009307004B01000100FD17EDFF72
:10041400B7170040930670052380D704130780FAAA
:100424002380E7047D892394A700010001000100D3
:100434000100238007042380D7042380E704930664
:10044400100537270040A303D78023800704828048
:10045400137605046DDE03C6A700418A0DE22380EE
:10046400D7042380E70403C7A70013670701238584
:10047400E7009307007D01000100FD17EDFFB717AA
:100484000040930670052380D704130780FA7D8902
:100494002380E704136505042394A70001000100E9
:1004A40001000100238007042380D7042380E7048C
:1004B400930630053727004079B74111814601463C
:1004C4008145114506C6AD2AB717004013077005CC
:1004D4002380E704130780FA2380E70403C7670433
:1004E400136717002383E70423800704B240410104
:1004F400828081460146814511459922B717004003
:10050400930670052380D704130780FA2380E70439
:100514007D562396C7022380D7042380E70403C7AC
:100524006704136717002383E7042380070401A0EB
:1005340099473305F50201007D1575FD828041114F
:1005440022C426C206C6AA84014463179400B2409A
:10055400224492444101828005041305803E4204F2
:10056400C13F4180DDB7B71700401307000323885C
:10057400E702854723A8F18673002030411106C69F
:10058400A921FDBF2303048015472303E480010050
:100594002302A480828083076480E3CE07FE2303C2
:1005A4000480828083076480E3CE07FE0345448091
:1005B400828083076480E3CE07FE2302A4808280C6
:1005C400411126C44AC24EC006C61377F50BAD4787
:1005D400AA892E8995446306F70019456537653F56
:1005E4008D444E854537FD59FD1463983401B2405E
:1005F400A2441249824941018280135509011375AD
:10060400F50F453F2209CDB7011126CC06CEB7041C
:10061400080051371545BD37713769372AC6A53FDC
:1006240032459377150089EB136515001375F50FA3
:10063400F240E24405618280FD14E9FC0145CDBF2E
:10064400397126DC4ADA4ED852D656D45AD25ED004
:1006540006DE62CE66CCB7E700E07D5783AA0700CA
:1006640022C603AA470023A0E71823A2E718B71756
:100674000040130770052380E704130780FA2380E2
:10068400E70483C74704930B75FFB684E20793FB23
:10069400FB0F8546AA892E8B328937240040E187D7
:1006A400015763FA76016308D500894613070002EF
:1006B4006313D5000157D98F93F7F70FB71C004088
:1006C4002382FC0411472303E4801305F00F5D3DEE
:1006D400094CD13563697C11B70707003E9B378706
:1006E40007007955637EEB02B3079B00636AF70248
:1006F400A9476399F90689E48144713D26850DA0D3
:10070400DA850945753D05090345F9FFFD14050B17
:100714004D3581C49377FB0FFDF7FD3569FD7D559C
:10072400B7170040130770052380E704130780FA06
:100734002380E70403C74704418B2382E704F25074
:10074400B7E700E023A0571123A24711E254324433
:100754005259C259325AA25A125B825B724CE24C11
:1007640021618280A5476395F90685691309F00F15
:10077400B3069900B3742B01B6941349F9FFB3740B
:100784009900856B33796901416B9387F9FFB3F75E
:10079400270199E363FC340193D94900C147E3E697
:1007A40037FF99BF0569C1697D19D9B71305800D54
:1007B4006388690113050002638479011305100835
:1007C400CA85FD3B913521DD4E99B3843441D9B7B7
:1007D400DA852D45F533CA94E30099F20509D93336
:1007E400A30FA9FED5BF9387F9FF93F7F70F636CA7
:1007F400FC0803C75C04B70708001377070219E372
:10080400B78707007955E37DFBF033079B00E3E9E5
:10081400E7F089476390F9048980D549E38E04ECB5
:10082400DA850945713B11090327C9FF9147232044
:10083400E48003076480E34E07FE23033481FD173D
:10084400EDFBFD14110B81C49377FB0FE9FF6D3BA6
:1008540071F5F1B58547E387F9F4DA852D458D33D4
:100864009389F4FFE38A04E8353B93F7390091EB6D
:10087400832604800327090093074900E39FE6E6E3
:100884003E89CE84F1BFB5476396F9001305900BFA
:10089400D5399DB5B1471305B00AE38BF9FE9947E5
:1008A400639EF902DA852D45213B81448D4BA14994
:1008B400D53963967401832704802320F9008504C5
:1008C400E39834FF8327048013172B016355070033
:1008D4002312F90015B52322F90039BD9D47639908
:1008E400F90281451305B004E139BD442320090010
:1008F40023220900FD597D3193F77400CA9703C779
:100904000700FD14398D2380A700E39634FFEDB36F
:10091400A1476392F904CD398144630D0B008D47DF
:100924009304C0036308FB009304000563048B0174
:10093400930440041375C507E30095DC1945993108
:100944009939054581312685AD3109459D316D398A
:10095400E31405DAE9B391476399F90013056006D6
:10096400153115391305900925B7E38709D8F154D2
:1009740069B309CDB7170040130770052380E70456
:10098400130780FA2380E7042396A702828019C103
:10099400814799E982803387F5008346070033074E
:1009A400F50085072300D700E397C7FEE5B719C113
:1009B400FD5781E98280910503A7C5FF1105232E08
:1009C400E5FE7D16E319F6FEF5B7797122D41734E6
:1009D4000000130464AA1C4006D626D24AD04ECE88
:1009E40091C782979737000023A807A85C4089CB5A
:1009F40003D5C18BBD3F5C40829703D5E18B953F06
:100A04001C40639907189737000083C7B7B8858BD4
:100A140095C797370000A38F07B617370000034721
:100A240097B7914763FCE700C9239737000083C752
:100A340097B6F9178A07A2979C43829797370000C5
:100A440083C707BA918B89C7972001E0E780600BC1
:100A54001C4491C382979387818B98431736000077
:100A64000346569F3E89973400009384A49E97378B
:100A7400000083C7279E93961700BA9683D6060074
:100A8400638006109737000083C7C79C63F2C708CA
:100A940086073E97835507002310070003D5C18BB3
:100AA4002EC62392018CF1359387018D9C43173513
:100AB40000000345259A13172500BA979C43B245B5
:100AC4008297AA8903D5E18B6D359737000083C7D8
:100AD4006798139717008327090003D5418C1345A2
:100AE400F5FFBA9703D7070033753501598D239065
:100AF400A70083C70400850793F7F70F1737000093
:100B0400230AF794173700000347D79463E6E700F6
:100B140097370000238007941C40ADEF9387818CA6
:100B240098433E8425CB9737000083C717A791CB02
:100B34009737000083C737A689E7972001E0E7804D
:100B440000AD1C4082972A8431C59C48AA97173768
:100B540000002329F7909387C18C9C4385CF03D54C
:100B6400C18B013D2285970000E0E7808077225405
:100B7400B25092540259F24903D5E18B4561D5BB79
:100B8400850793F7F70F973600002385F68CE3E08B
:100B9400C7EECDBDB250225492540259F249456178
:100BA40082809167B7C600409387373023A6F6202A
:100BB4000F100000973700009387C789884F9387E9
:100BC400819C9C43316713073730F053B7071000FB
:100BD400FD17918F99833A0523A6E6205D8D8280C7
:100BE4004111B7170040985F3AC6945F3247E39CBF
:100BF400E6FE324541018280411106C6D53797365B
:100C0400000083C6A682858AB1C6930730333307B2
:100C1400F502B337F5023983CA07D98F17370000B5
:100C240013074783584B01456303F7023385E740B5
:100C3400636BF70037653D0889C637856F08130570
:100C44000590198D3E9517370000232FF780B24089
:100C540041018280E5473307F502B337F502258366
:100C6400DE0765BF0327C50F8346B500973700002D
:100C7400938707929C4F584393861602958290431C
:100C8400FD1693F6F60F10C3D04350C3904710C718
:100C9400D04750C7904B10CBD04B50CB904F10CF78
:100CA400D04F50CF91C61307070293870702C1BFE5
:100CB40082808347E50193F7E70FF1EF2A87034525
:100CC400F50171E9034607018346870009CA834594
:100CD400A7029727000083C7777563E7F50093F7AA
:100CE4000601C5CF814709CA834707150346F71490
:100CF400C18AA207D18F81CA834637150347471596
:100D04002207558FBA97D1CB173700001307C79323
:100D14003847411122C406C67D548326070863F36D
:100D240086003684184375FB1727000003470770B5
:100D340093168701E18663D906029387C7139583C7
:100D4400172700000347276FBA9763D006041D8C4A
:100D54009387418D9C4382973335A400B24022444B
:100D64001345150041018280058B9387C71209CB77
:100D74008A079387F7031305D007B3D7A702C9B728
:100D84008607FD071305D003CDBFE372F4FC3705D6
:100D9400C0A82A946DBF014582808280411122C47B
:100DA4001384819B18404AC006C61C5F26C213895F
:100DB400419B9983858BC1C31C5F97240000938456
:100DC400247D93F7F7F91CDF9727000083C7477C3E
:100DD40093F707048DC39387418D9C43829797278C
:100DE400000023AFA77A83C7040093F7F70B1727F4
:100DF4000000230FF778854717270000A30CF77826
:100E040083C7440093F7070481EF9387819C9C4335
:100E1400D844B8D3930700FC17270000230CF776B7
:100E24008387640063D90700832709009C4317273D
:100E340000002302F77618401C5F8583858BC9CB9D
:100E4400F5571CDF01000100010001000100010051
:100E54000100010001000100010001000100010086
:100E64000100010001000100010001000100010076
:100E74000100010001000100010001000100010066
:100E84000100010001000100010001000100010056
:100E94000100010001000100010001000100010046
:100EA4000100010001000100010001000100010036
:100EB4000100010001000100010001000100010026
:100EC400010001009387819C9C4313075004B8CB15
:100ED40018401C5F9183858B89CFBD571CDF938796
:100EE400819C9C4323A807048547172700002303FC
:100EF400F76A83270900D8430583058B19C7D843AC
:100F0400759BD8C3D843799BD8C3B240224492443A
:100F1400024941018280397106DE16DC1ADA1ED8D4
:100F24002AD62ED432D236D03ACE3ECC42CA46C885
:100F340072C676C47AC27EC09535F250E2525253DC
:100F4400C2533255A255125682567247E24752484E
:100F5400C248324EA24E124F824F2161730020309C
:100F64009387819C94431727000013076762BC5240
:100F740089CF83472700858B89EB83473700858B8F
:100F8400FDD7972700002387076082809387419CC1
:100F94009C4399CB944BD04B9842518F98C2944325
:100FA4009C479842D98F9CC29387819C9C4337C7A6
:100FB40000401306C003A8CB930620039725000026
:100FC4009385055D83278720C18393F7F7036369BE
:100FD400F60083278720C18393F7F70363E6F600BF
:100FE40083C74500858BF9DF82809387819C944376
:100FF400172700001307C759BC5289CB8347070042
:10100400858B91CB972700002386075897270000EC
:10101400A3820758828083471700858BF1DFDDB7F1
:101024009387419C9C4399CB944BD04B9842518FCE
:1010340098C294439C479842D98F9CC29387819CC1
:10104400944337C70040C145A8CA65468327872013
:10105400C18393F7F70363FBF50083278720C183DC
:1010640093F7F7036364F600BC52EDF382801387B1
:10107400819B1843AA87185F1583058B25EF0345C9
:10108400150015051377C51F19C6B386E70083C677
:1010940026002300D60095C59726000083C6A64FD8
:1010A40093F606040945A1CAB386E70083C6360051
:1010B400054693F5F6066390C504E206E18663CC23
:1010C40006023385E7008347150003470500A2079E
:1010D40093F70770D98F13970701418393760740DD
:1010E40099C6136707802390E19C01458280239071
:1010F400F19CE5BF054582809386819C8C423685B0
:10110400972600009386C648984593170701C18324
:10111400137817203E86630408041377072079C3E5
:1011240003C7260013671700172800002303E846A7
:1011340013070019B8D1130700F897250000238B73
:10114400E5441387819B0C4337080010D855719BE5
:1011540013672700D8D598413367070198C11377DF
:10116400261005C31376061059CE03C7060013676D
:10117400170017260000230DE64017270000231D43
:10118400074083C6460093C7F7FFC207E206E1861D
:10119400C183184163D106029396170163DE0606E4
:1011A40030538D4663E9C6008546172600002303A5
:1011B400D63E3453FDFE972600009386E6258386AB
:1011C400460163DD060093960701C18663DC0604CD
:1011D4007053894663E4C6007453FDFE1447F58FCB
:1011E4001CC7828003C716001367170097250000E9
:1011F400A380E53A17270000230E073817270000BD
:10120400231C0738A9BF03C7360013671700172626
:101214000000A300E63895B7854617260000230B87
:10122400D63651BF54471396060163510602B706DA
:101234001000FD1674D3972600009386A621944EC1
:101244008506172600002323D62249BFA166D58F21
:1012540071B7397106DE16DC1ADA1ED82AD62ED4F6
:1012640032D236D03ACE3ECC42CA46C872C676C4D2
:101274007AC27EC05135F250E2525253C2533255B3
:10128400A255125682567247E2475248C248324E1D
:10129400A24E124F824F21617300203017270000A5
:1012A4001307C7308346B7019727000083C7573316
:1012B400B69793F7F70FFD4663EAF6044C4B97266F
:1012C4000000A385F62E9727000083C7372E054715
:1012D4003317F70097260000A384F6306D8F1DEFB7
:1012E4009726000083C61630B3F6D7021305000212
:1012F400814733D6F500058A13F8F70F09CE6399B1
:10130400E60097270000A383072B828081177DB70F
:1013140005071377F70F8507E39DA7FC8280938762
:10132400419D9843B75702009387279F8326070957
:101334001396560063580600832607091396660021
:1013440063440600FD17FDF3828051C9AA87014555
:10135400C9C98D07C207C183F19BC207C1831307A3
:101364004003636BF702138781A60843138701A622
:1013740014436396A602172700001307E709185BB6
:10138400014525C34111C20706C60545DD8D0297F7
:10139400B240014541018280138741A6F9B7035742
:1013A400650005EF035745006369F702B306F7408C
:1013B40021466370D6021041938687001D8FAA963A
:1013C400611790C22392E6002393060014C12312EE
:1013D400F5002313B50021058280084159BF01455A
:1013E4008280828001CD938781A603A8070093871A
:1013F40001A68C430147C28763E3B700828094430C
:10140400636FF50663EDA60613868700E368C5FEE1
:1014140003D56700216605066317C50003C6019757
:1014240005062388C1962393070063840703138664
:1014340041A61042630FF6000356670019EA83D7EA
:10144400470014C383564700B697A1072312F70039
:10145400BA879843E304B7FA938641A69442E30F0C
:10146400D7F883566700D9FA83D647000356470056
:101474001843A106B2962392D70098C382803E8770
:04148400B6879DBFCB
:10148800974100209381813717710020130101B71C
:101498001305400097250020938545361736002010
:1014A8001306067E63FAC5008322050023A05500B3
:1014B80011059105E3EAC5FE17F501001305C5BA44
:1014C800973500209385C57B1386018663FAC5008E
:1014D8008322050023A0550011059105E3EAC5FE06
:1014E8001385018697650020938585A06377B500ED
:1014F800232005001105E36DB5FE9302800873A053
:101508000230972200209382622F93E21200739098
:101518005230973200009382A2FF73901234730006
:1015280020303D432A876373C3029377F700BDEFEA
:10153800ADE5937606FF3D8ABA960CC34CC30CC73B
:101548004CC74107E36BD7FE11E28280B306C34064
:101558008A069702000096966780A6002307B700C0
:10156800A306B7002306B700A305B7002305B700F5
:10157800A304B7002304B700A303B7002303B700ED
:10158800A302B7002302B700A301B7002301B700E5
:10159800A300B7002300B700828093F5F50F939658
:1015A8008500D58D93960501D58D61B79396270053
:1015B8009702000096968682E78086FA9680C11781
:1015C8001D8F3E96E374C3F8A5B7B71700401947B7
:1015D80003C88705238CE70403C797051378F80F1A
:1015E80013678700A38CE7040547238DE7043717A3
:1015F80000408347A7059305A705858BFDFB056577
:1016080041473716004005439308F5FF23806500DE
:1016180083C60500858AEDFE8356C6057D174207F9
:1016280093C6F6FFB3F616014183B69765F30347F1
:101638009605A1079183130505801377770F1D8DF4
:10164800A30CE6044205230C060541858280B717E2
:10165800004003C777051A0592054D8D1377E70FEC
:1016680013653500A38BE7041375F50FA38CA70446
:101678008280B717004003C777051377E70FA38B5E
:10168800E704130700F8A38DE7043D47238CE7041C
:1016980013075003A38CE70482800547B71700405F
:1016A800238DE704371700408347A705858BEDFF97
:1016B8000355C705520551818280B7F70700DC4BF7
:1016C80013D7070111E36547C207C1831D8DA947D9
:1016D8003305F502ED473345F5023A958280B71791
:1016E800004003D587005D715ED64205418186C6FC
:1016F800A2C4A6C2CAC04EDE52DC56DA5AD862D498
:1017080066D26AD06ECE9377050C13070008814B1A
:101718006388E71813070004639CE714B7240D8F48
:101728007D8993840480B3D4A4029167938707E8E2
:10173800BE94A167938707D0B3D4F402EFB0110E1B
:1017480097E70100938787F39043D443EFB0814133
:10175800EFC0A1562A8B939C040103D9018693DC20
:101768000C0163150900056913090980B7170040C2
:10177800130770052380E704130780FA2380E70422
:10178800371A00400547939D0401096C8566238933
:10179800E704D14A814E8145130D0A0413087005E8
:1017A800130680FA894893DD0D01130C0C71294347
:1017B800FD1623000D012300CD0023162A03230064
:1017C8000D0083472A05898BEDDF83570A05834778
:1017D8002A05898BEDFF83472A05898BEDDF83571F
:1017E8000A0523902187C207C1833385974193193E
:1017F800050193D90941638409163387B902635EE9
:10180800070C850EC20E93DE0E0163E8D80D63D96E
:10181800050A3305B04093150501C185C204C1808E
:1018280063D7350B0965130505713385A502B7170D
:101838000040130770052380E704130780FA23800C
:10184800E70423967703238007043345950242056E
:101858004181B640264496440649F259625AD25A02
:10186800425BB25B225C925C025DF24D61618280F8
:10187800B1E3B77489097D8993840480B3C4A40251
:101888009167938707E8BE94A167938707D0B3C48D
:10189800F402EFB0A17897E701009387A7DE6DB552
:1018A80097E70100938707DD856403AB07009384FE
:1018B800843855B5130B0000954471BD3A89D5BDE0
:1018C800B387FC409399070193D9094181BF096502
:1018D800130505713385A9028DBF3385B74163E4CC
:1018E800FC003385FD40330585033344B503634568
:1018F800830013150401A9BF4E8536C642C432C2FF
:10190800EFC06122DA85EFB0D134EFC04116931EE3
:10191800050193DE0E41B307D941C207C183056EA5
:101928003E871246224889482943B24663E3C701E5
:10193800368742074183631A270113071900634456
:1019480030011307F9FF42074183FD1A93FAFA0F92
:10195800CA8BCE85E3940AF62390E18659BF0145E8
:10196800CDBDB717004003D587005D7186C6420517
:101978004181A2C4A6C2CAC04EDE52DC56DA5AD889
:101988005ED662D466D26AD06ECE02C69377050C54
:1019980013070008638BE71413070004639FE7101D
:1019A800B7240D8F7D8993840480B3D4A4029167F2
:1019B800938707E8BE94A167938707D0B3D4F4024E
:1019C800EFB0C16597E70100938747CB9043D443B5
:1019D800EFB04119EFC0612E2A89939A040103DB05
:1019E800218693DA0A0163150B00056B130B0B8034
:1019F800B7170040130770052380E704130780FA20
:101A08002380E704939B040105478969056A2389B4
:101A1800E704D14D014D814C93DB0B01938909718A
:101A28007D1A5A8597200020E78000E9330C55413C
:101A3800420C135C0C412391618763010C16B307B8
:101A48009C0363D1070E050D420D135D0D018947F7
:101A580063EAA70D63DB0C0A33059041931C05016B
:101A680093DC0C41C204C18063D88C0B0965130553
:101A780005713385AC02B717004013077005238042
:101A8800E704130780FA2380E70432472396E70226
:101A9800238007043345950242054181B640264418
:101AA80096440649F259625AD25A425BB25B225CAA
:101AB800925C025DF24D61618280B1E3B77489097D
:101AC8007D8993840480B3C4A4029167938707E84F
:101AD800BE94A167938707D0B3C4F402EFB0015452
:101AE80097E70100938707BAD5B597E70100938771
:101AF80067B8856403A9070093848438F9BD13097E
:101B080000009544D9BD3E8B29BF3385AA40131CDC
:101B18000501135C0C41B9B7096513050571330557
:101B2800AC028DBF63FEAA0033057541330535034A
:101B3800A9473344750363C8870013150401B1BF6F
:101B48003385AB40E5B76285EFB0F17DCA85EFB06C
:101B58005110EFB0D171131D0501135D0D4133070D
:101B6800AB41420741838565BA876363B700D28773
:101B7800C207C183639A670193071B00634480010E
:101B88009307FBFFC207C183FD1D93FDFD0F5AC6D6
:101B9800E28CE39A0DF62391F18645B70145FDBD28
:101BA80041112A83014E930E407E130F0019930FA3
:101BB800400663EB6E0A9308001913034006B378D6
:101BC8001503854E0D4FA14F337365020D891335EB
:101BD800150063E5BE0C1308F6FF794672984208B3
:101BE800135808013307C70213D61700BE073297E8
:101BF8006146B3F6C60213068070B386C6023697EE
:101C0800A166F58F42075D8FB717004083C6F702BC
:101C180093F60608A307D1000346F10083C6F7022E
:101C280093F60608E394C6FE8346F10093F6F60F92
:101C3800F1DE930670052380D704930680FA23808B
:101C4800D70423AA070383C6170393E60608A388C5
:101C5800D702D8DB03C7170313670704A388E70273
:101C680023800704410182807D133368E3039308CE
:101C7800E016630E08003368F3039308D016630870
:101C880008009378330093B818009388D81633085F
:101C98001E01131E0801135E0E0121BF6393E503A5
:101CA8000548638608000148630303002A88710811
:101CB8007298FD15131E0801C205135E0E01C1813D
:101CC80009BF13F8150063F4BF007908D5B71338B6
:101CD8001800E5BF914763EEB70217E70100130745
:101CE800E79A8A05BA959C41BA978287B717004048
:101CF80003A7470B1345F5FF698F23AAE70A03A734
:101D0800070B698F23A8E70A03A7070A798D23A081
:101D1800A70A8280B717004083A6470B1347F5FF31
:101D2800F98E23AAD70A83A6070B558D23A8A70ADD
:101D380083A6070A758F23A0E70A8280B717004099
:101D480003A7470B498F23AAE70A03A7070B1345E5
:101D5800F5FF45BFB717004083A6470B1347F5FFAC
:101D6800758F23AAE70A03A7070A598D4DB7B71736
:101D7800004003A7470B498FEDB7914763EEB702C1
:101D880017E701001307C7918A05BA959C41BA97CE
:101D98008287B717004003A7470D1345F5FF698FE2
:101DA80023AAE70C03A7070D698F23A8E70C03A74D
:101DB800070C798D23A0A70C8280B717004083A653
:101DC800470D1347F5FFF98E23AAD70C83A6070DF5
:101DD800558D23A8A70C83A6070C758F23A0E70CA5
:101DE8008280B717004003A7470D498F23AAE70C45
:101DF80003A7070D1345F5FF45BFB717004083A696
:101E0800470D1347F5FF758F23AAE70C03A7070CA7
:101E1800598D4DB7B717004003A7470D498FEDB748
:101E280005E937170040930770052300F704930767
:101E380080FA2300F70483570702C207C18393F788
:101E4800F79FC207C1832310F7022300070482808B
:101E58000111B7F5070081463000B105194506CED6
:101E680097200020E78080FDA2471397270163444D
:101E78000702B7170040130770052380E70413070C
:101E880080FA2380E70403D70702136707602390CB
:101E9800E70223800704F24005618280B7470040CB
:101EA8001147A381E70009472380E70013070006CD
:101EB8002380E70003C7170013670701A380E70023
:101EC80003C717001377E70FA380E70082808547D1
:101ED8006309F50201C989476302F5048D47630662
:101EE800F5048280B747004003C707001377770FD0
:101EF8002380E70003C7170013670702A380E700E2
:101F08008280B747004003C707001377770F238005
:101F1800E70003C717001377F70DCDB7B7470040A1
:101F280003C7070013678700E1B7B747004003C737
:101F3800070013678700E1BFB747004003C70700E2
:101F48001377F70E2380E700131705012E954183B9
:101F58004205239CE7004181239EA7002396B700F2
:101F680025472383E70003C7170013671700A380DB
:101F7800E70003C76700058B6DDF03C717001377FA
:101F8800E70FA380E7008280B717004003D58700DA
:101F9800420541819377050491EB9377F501375515
:101FA800E801130505803345F50282809377050C17
:101FB800130700046397E7009377F50137459C1CE6
:101FC800CDB72165130505D08280B7F700E0C84377
:101FD8009C478280814737370040A14663C4C700C9
:101FE800328582800345B700E38EA6FE3385F5006F
:101FF8000345050085072304A700CDB7411122C476
:1020080006C62A8451372947B307E502B2408D83B3
:10201800B3D7870222449507B3D7E7023737004082
:10202800C207C1832316F7004101828071654111FF
:102038001305052006C6D937B7370040130770F8CF
:102048002381E7000D47A381E70013070004A3805D
:10205800E70005472387E700B24041018280CC4171
:10206800411106C6328503C6150083C50500220640
:102078004D8E42068D654186138875A2630A060F48
:102088006347C804138845A26305060B634AC80062
:10209800938535A26308B60623900600294671A0E9
:1020A800138855A26306060B938565A2E316B6FE50
:1020B80099451D4663EBE506198E63F3C7003E8616
:1020C8002390C60097E50100938585F089A81388B9
:1020D80095A2630E060D634D060B1388A5A263082F
:1020E800060F938505A5E319B6FA99451D4663EED3
:1020F800E502198E63F3C7003E862390C6009385D8
:10210800818031A89D451D4663E1E5022146198E6F
:1021180063F3C7003E862390C60093854186BA952F
:1021280097200020E78060060146B24032854101D1
:10213800828099451D46E3EAE5FE198E63F3C700E0
:102148003E862390C60097E50100938525EAC1BF26
:10215800B1451D46E3EBE5FC3546198E63F3C70030
:102168003E862390C60097D501009385A55645BFA6
:102178008D451D46E3EBE5FA1146198E63F3C7005A
:102188003E862390C60097E50100938525E541BF6B
:1021980099451D46E3EBE5F8198E63F3C7003E86C3
:1021A8002390C60097E50100938545E68DBFB945A4
:1021B8001D46E3ECE5F63D46198E63F3C7003E86FF
:1021C8002390C60097D501009385C54F89BFB545B3
:1021D8001D46E3ECE5F43946198E63F3C7003E86E5
:1021E8002390C60097D501009385C54C0DBF97363F
:1021F80000209386E6BB4146CD45173500201305E0
:1022080025A86F80F039411106C6EFF04FCDBD47C4
:1022180063F4A700EFF0AFCCEFF0AFF4BD4763F481
:10222800A700EFF00FF4B24083D5218603D50186CD
:1022380041016F203043411193962500AA852D4511
:1022480006C697200020E78060BFB24001454101E3
:102258008280411126C29394250022C44AC02A8450
:102268003289A686AA850146254506C697200020FC
:10227800E780C0BCA6864A86A2852945972000200B
:10228800E780C0BBB2402244924402490145410163
:102298008280011122CC06CE3714004026CA4AC8D3
:1022A8004EC652C483447405034AB4058349840561
:1022B80003499405EFF0EFBB8347A40593F4F40FAB
:1022C800137AFA0F93E71700230DF40493F9F90F23
:1022D8001379F90FB717004003C7A705058B6DFFE2
:1022E80003D5C705A38D4705238C3705A38C270580
:1022F800A38B9704F2406244D2444249B249224A2D
:102308000561828041119397050122C406C6C187E1
:102318002E8463DD0700EF20003A19C1EF20003357
:102328002165218DB24022444101828093F7150036
:1023380013C51500E5FB9397250163D00702EF301D
:10234800B14ED13537F60200130606E0896503C59C
:10235800C186EF2050080965E9B793971501014533
:10236800E3D207FC17D501001305453CEFB0F14F48
:1023780013060064916503C5C186EF20D005116579
:102388004DB71D71494697D501009385A53517D5D9
:1023980001001305257986CEEF20606B01E917D57A
:1023A800010013056535EFB0514C01A037F700E087
:1023B800F9575CC7FD571CCB8566B7E700E023A03B
:1023C800D7101306701010C3B8434146B0C323A0FA
:1023D800D718B8C3010001001306C0038145480897
:1023E800EF20C06097370020938787023ECA89672D
:1023F80093870780231CF100ED47A301F10293079F
:10240800A0102312F102D1472303F102A167938799
:1024180007E03ECE97070000938727E2BEC49707E0
:102428000000938747E3BEC685472304F102B947F6
:102438002308F10297070000938767B93EDAB7F5DA
:10244800070097070000938707E53EDE8146970758
:102458000000938787DB7000E1051945BEC097200F
:102468000020E780A09D58088147994670003E9655
:102478000346060085070507A30AC700E398D7FEA9
:10248800D24791C70357810185676373F70001A09D
:102498004808EF20F032AA8501C917D501001305B5
:1024A800E526EFB0F12A01A0F640256182804111AE
:1024B80017050000130545E506C622C4EF20D02CF9
:1024C8001384C1862300A40029280345040022445C
:1024D800B24037F60200130606E0896541016F2015
:1024E800806F411106C622C4930670053714004058
:1024F8002300D404130780FA2300E4048347F4027A
:1025080093F7A70FA307F4022300D4042300E404DD
:102518008347F40293E72700A307F402ED3113057C
:10252800407E2300040481470147814605468545CE
:10253800EFF00FE72244B240014541016F203055CA
:10254800797126D206D622D44AD04ECE52CC03C8B0
:102558008500A144137808026311080683C80500A2
:1025680009482E848144639A080503A84500AA896E
:10257800328A83471800034808003689A207B3E760
:102588000701C2070D68C1871308289063800705F3
:1025980081440357A4009737002083D7C787631E59
:1025A800F700938741879C4389CB0D473AC223168E
:1025B800210152C44C004E858297B2502254268580
:1025C80002599254F249624A456182808547EF6018
:1025D8003042AA845DFD93874187984355DB834742
:1025E8001A0083460A004C00A207D58FB337F000C3
:1025F80085073EC24E85029769BF011117D50100B4
:102608001305051322CC26CA2EC606CEB28436C4BC
:10261800EFB0B125B245214483C78500C18B9DEF3A
:1026280003C6050089470144A2466319F602D8414A
:102638008347170003470700A207D98FC2070D6712
:10264800C18713072790639BE700CC452390C600FA
:102658002685094697200020E78020B32285F2408E
:102668006244D2440561828041677917630CE502B0
:10267800411122C406C685472A84639AF50022853B
:102688002244B2409385C1A741016F80407C8947AD
:102698006396F5008545EFA0502575D1B2402244D8
:1026A800410182808280411126C2AA8441659385B6
:1026B800C1A77D1506C622C4EF8060791705000002
:1026C8001305C5FAEFA0F019972600209386067522
:1026D80041469945172500201305456EEF80406C4B
:1026E8002A8419C517D5010013054505EFB0F11760
:1026F8002285B240224423AA9186924441018280D5
:1027080041119385C1A706C6EF605029B2407D15D7
:102718001335150041018280411122C42E8493850E
:10272800C1A726C206C6AA84EF605027058915C12D
:10273800972700209387876883D7A702A285B2408E
:102748002310F400224426859244014641016F700B
:10275800B000B240224492444945410182808357E7
:102768002500035505003385A74042054181828035
:10277800AA8705C21307F6FFB376C700054599EA8D
:1027880023A00700CCC32394C7002395E700014585
:1027980082800545828023200500828083570500BA
:1027A800035525003385A740133515008280AA8775
:1027B8001145B5C72DC683D6070003D787000D4539
:1027C800369783D62700158F4207418329CB0145C9
:1027D800B9C5835606006373D700BA86C206C1829C
:1027E80001471315070141816366D5002310D60000
:1027F800014582803385E5008348050003D8A7009A
:1028080003D52700050733780501C84342952300FF
:10281800150103D5270005052391A700D9B78280A4
:10282800AA871145B1CF29CE83D6070003D7270041
:10283800158F83560600420741836373D700BA8613
:10284800C206C18209450DCF01476366D700231030
:10285800D6000145828003D5070003D8A700337846
:102868000501C8434295034805003385E50005077F
:102878002300050103D5070005052390A700F1B73C
:1028880082809D4763E4A702050593172500172555
:102898000020130565593E9593E505FE2300B50014
:1028A800A300E5002301D500A301C50082809D4750
:1028B80063E7A702050593172500172500201305D0
:1028C800A5563E9593E505FE93578600A300C500DF
:1028D80041822300B5002301F500A301C5008280D1
:1028E800011122CC26CA4AC84EC606CE2A89AE890C
:1028F8000144A144228505044E86CA851374F40F49
:102908007D37E31994FEF2406244D2444249B24909
:1029180005618280411122C426C206C60144A14431
:102928002285050401478146014681451374F40F49
:10293800893FE31794FEB2402244924441018280C9
:1029480093058002172500201305054E6FF0CFDE92
:102958008547631CF500371700408327870CB706A7
:102968008000D58F2324F70C828011E937170040A7
:102978008327C70CB7068000D58F2326F70C8280E3
:1029880041118D45096506C6EFF0CFB411658D4537
:10299800EFF04FB4B717004003A7870A9166558F29
:1029A80023A4E70A03A7870A8966558F23A4E70AA1
:1029B800EFF0CFCEB2400D4541016FF04FD103C7C4
:1029C800C187930717009386C1AA0A07369708C3D9
:1029D80093F7F70F1D476373F7008147238EF1863E
:1029E80082809387C1AA938641AC3E87884311C9E8
:1029F800D0436317C5009107E39AD7FE0843828046
:102A08000145828001112AC606CE2937324523A204
:102A180001889D477D1563EEA70617D701001307A8
:102A2800E7D30A053A951C41BA9782873706CD0045
:102A38007D1685451D45F240056195BD41663916EF
:102A480085451545CDBF09661306F62F8545114501
:102A5800DDB7014685451945F9BF37A6FF001306BE
:102A6800069085450145C1BF3706FF0013067670FD
:102A780085450945C9B7370699001306C60C85452B
:102A88000D4555BF37061200130606F08545054566
:102A98005DB7F240056182804111170500001305FA
:102AA800854406C622C4EF20204E1384D18713061E
:102AB800000A85452300A400EF20E0110345040027
:102AC800130600199145EF20001103450400130671
:102AD8000019A145EF202010034504001306A00BA0
:102AE8008945EF20400F034504001166130606E8E8
:102AF80093050002EF20200E034504002244B24053
:102B080037A60E00130606609305000841016F20E2
:102B1800800C411185457D5506C6EFF0AF9B854574
:102B28007D55EFF08FA581452165EFF0AF9A81457E
:102B380013050020EFF00F9A8D4537058000EFF060
:102B4800CFA385450565EFF04FA38D450965EFF0E7
:102B5800CFA2371700408327870C8545414593E767
:102B680007082324F70CEFF04FA18D451305000843
:102B7800EFF0AFA0EFF08FCBB240238E018641017A
:102B88008280411185457D5506C6EFF0AF94854595
:102B98007D55EFF08F9E81452165EFF0AF9381451C
:102BA8001965EFF02F938D4537058000EFF0EF9C06
:102BB80081450565EFF06F9C81450965EFF0EF9B56
:102BC80081454145EFF06F9BB240814513050008F0
:102BD80041016FF08F9A411122C426C206C6A14452
:102BE800EFE03FA90144EFE05FAB2A94FD144204F3
:102BF80093F4F40F4180E5F8135534002244B240B1
:102C0800924441016FE07FAB41118545014506C6FD
:102C180022C426C24AC0EFE09FA39D473714004054
:102C2800230CF404EFE07F9A239DA1869547230C9B
:102C3800F404A14401441389A187EFE01FA6831778
:102C48000900FD1493F4F40F3E952A94FDF41355EE
:102C580034001304A0413305850237A4EFFF1304A1
:102C68000480B240924402492295224425814101C0
:102C78008280011106CE22CC413F1384C1AD2AC601
:102C8800993F2AC40844EFA0915E2AC24840EFA0A9
:102C9800115E2AC00840EFA0915D13878188924891
:102CA8000248A24632461843AA8797D50100938561
:102CB80065AE1385C1A8EFB0013CF24062444205FD
:102CC8004181056182808567138767036341A70295
:102CD8001387E7F66340A702138787ED6340A702CF
:102CE8009387C7DA63C1A7023705FF0082801305FF
:102CF800F00F82804165130505F0828037F5FF00EB
:102D08001305351482803775FF001305055082803E
:102D1800397156D206DE22DC26DA4AD84ED652D48B
:102D28005AD05ECE62CC66CA6AC8AE8A6355A00C19
:102D3800930780163365F50232C697DB0100938B43
:102D48006BA7EFA0515E97D70100938727A68C4306
:102D5800EFA0E1332A84EFA091512A8BEFA0B15C58
:102D6800AA852285EFA0311832462A8D17D4010092
:102D7800130404A43285EFA071670C40EFA0213141
:102D8800AA845685EFA091660C40EFA04130AA8C2A
:102D9800AA8503A50B00EFA01115A685EFA0616B0E
:102DA800E685AA8A6A85EFA0C16AAA8503A50B00F1
:102DB800EFA07113A685EFA0C1692A8C03A50B00AB
:102DC800EA85EFA05112E685EFA0A168AA8503A5C0
:102DD8000B00EFA05111A685EFA0A167954763E608
:102DE800670317D70100130767990A0B3A9B8327D4
:102DF8000B00BA9782873305A0401DBF5689AA8960
:102E0800268A21A05689A689628A0C405285930495
:102E1800F00FEFA001640C402A8AEFA06152634FC3
:102E2800A000930500005285EFA0E1598144634753
:102E380005005285EFA0D1499374F50F0C404E85DB
:102E48009309F00FEFA0E1600C402A8AEFA0414FF0
:102E5800634FA000930500005285EFA0C156814939
:102E6800634705005285EFA0B1469379F50F0C40F2
:102E78004A85EFA0015E0C402A89EFA0614C9307B8
:102E8800F00F634FA000930500004A85EFA0A153FF
:102E98008147634705004A85EFA091439377F50F73
:102EA800F2506254C20413958900458D4259D25498
:102EB800B259225A925A025BF24B624CD24C424DA2
:102EC8005D8D216182802A89A689568A3DBF26891F
:102ED800E289E5BF2689D6892A8A05BF6289D6890B
:102EE80005B779719397050122D406D626D2C187F2
:102EF8002E8463DF0700EF10007C19C1EF10007506
:102F0800A164A18CB25022542685925445618280D6
:102F180093F72500A9CB9387818898439147631B32
:102F2800F7020545EFF0DFA2938741888443130633
:102F38008007930580072685E13B89042AC623A2DA
:102F48009188EFF03F9D324685451945EFF03F9651
:102F5800EFF01F9F6946894503C5D187EF10B04739
:102F68009344240045B793F71500D1C3EF00A06838
:102F7800EFF0FFA4938481889C4023A0F1889534C6
:102F880023A4A18829CD9147630BF5000545EFF0EF
:102F98003F9CEFF03F988840B534EFF07F9A9387D5
:102FA800018898439C406302F7029305000803C513
:102FB800D187EF10505937A60E0013060660930507
:102FC800000803C5D187EF1010411306000A854594
:102FD80003C5D187EF1030409344140025B7EFF0B4
:102FE8007F93EFF0FF950145EFF09F964DBF93F764
:102FF800450095CFBD39231FA1001306E101938534
:10300800C1A8138581B6EFF08FFA0946C14503C5FB
:103018005181EF10503CEF106036130600199145AE
:1030280003C5D187EF10303B93444400E1BD93F7CB
:103038008500C1C78547138541BF231FF100EFF005
:10304800EFF59344840035E11306E1019305D101BE
:10305800138541BFEFF0CFFC29E90347D10193075E
:1030680060046314F7040545EFF09F8E854503C59A
:10307800D187EF10504D894503C5D187EF10B04C6B
:1030880013060064C14503C5D187EF10D034094544
:1030980097100020E78060CAB7050001FD150D45AF
:1030A800EFF01F84EFF0DF89B1BD13060019A145C9
:1030B80003C5D187EF103032B1B593F70501B1C719
:1030C80081450D45EFF0DF81EFF09F870145EFF077
:1030D8003F88138541BFEFF00FEC1306000A8545C2
:1030E80003C5D187EF10302F1306A00B894503C500
:1030F800D187EF10502E13060019A14503C5D187BB
:10310800EF10702D93440401F5BB93F70502A1CB92
:10311800E53C85679387B7DAAA8463CFA70205459C
:10312800EFF01F83854503C5D187EF10D04189454E
:1031380003C5D187EF103041130600329305000410
:1031480003C5D187EF1030292685B53EAA850D45E0
:10315800EFF00FF9EFF0CFFE9344040265B393F755
:103168000504B5CB5534AA840145EFF06FFE856799
:10317800938737CE63C797028D21054597100020A6
:10318800E780A0BBEFF0FF9F094597100020E7807C
:10319800C0BA014597100020E78040959344040485
:1031A80095B31306000A854503C5D187EF10B022F1
:1031B8001306A00B894503C5D187EF10D0211166EE
:1031C800130606E89305000203C5D187EF10B02067
:1031D800EFF04FF4E1B793F705088144E38407D291
:1031E8000145EFF0EFF6D52E054597100020E78052
:1031F800C0B4EFF01F99054597100020E780E0B3B1
:10320800014597100020E780608E93440408DDB9DB
:10321800094517130020670063B1411122C4371410
:1032280000408327840C26C2856406C6C58F2324E4
:10323800F40C8D450565EFE05FB48327840C0967BE
:10324800D98F2324F40CE9378327440C13973701CB
:10325800634807000145B2402244924441018280FC
:103268008327C40CC58F2326F40C5D378327440CB1
:1032780013973701E34007FE8327C40CC58F232625
:10328800F40C79370545C1BF411122C437140040F9
:103298008327C40C4AC0096906C626C2B3E72701BA
:1032A8002326F40CB5378326C40C85648D45C58E5A
:1032B8002326D40C0565EFE05FAC993F0327840C07
:1032C800336727012324E40CA1378327840CB240F9
:1032D8000249C58F2324F40C2244924441010DBFB6
:1032E800411122C4371400408327C40C26C28964C4
:1032F80006C6C58F2326F40C213F8327C40C056717
:103308008D45D98F2326F40C0565EFE01FA70937F3
:103318008327840CC58F2324F40CDD3DD53D8327FA
:10332800C40CB240C58F2326F40C224492444101B8
:10333800C5B5411122C4371400408327C40C26C2E6
:10334800896406C6C58F2326F40CD9358327840CD7
:1033580005678D45D98F2324F40C0565EFE0FFA19F
:10336800453D8327840CC58F2324F40C55358327CA
:10337800C40CB240C58F2326F40C22449244410168
:1033880041BD411122C4371400408327C40C26C212
:10339800896406C6C58F2326F40C9D3D953D832779
:1033A800840C05658545C58F2324F40CEFE0FF9C4C
:1033B8008535B93D8327440C014513973701832789
:1033C800C40CDD8C2326940C634307000545B240EA
:1033D800224492444101828001114AC88D452A89BC
:1033E800056522CC26CA4EC652C406CEA544EFE0D7
:1033F800DF98371400408969056AFD1493F4F40FC7
:103408008DE0371700408327C70CF2406244896675
:10341800D58F2326F70CD2444249B249224A056186
:1034280082808327C40CB3E737012326F40CCD33FD
:1034380093178901E18763D507028327840CB3E7D3
:1034480047012324F40CE9338327840C06091379F4
:10345800F90FB3E737012324F40C5D3B553B71BFEB
:103468008327C40CB3E747012326F40CE9BF3717B9
:1034780000408327870C0111856622CC26CA4AC8DA
:103488004EC606CED58F2324F70C8D450565EFE093
:10349800DF8EA5440144371900408969FD1493F46F
:1034A800F40F8DE0371700408327C70C2285F240C0
:1034B80062448966D58F2326F70CD2444249B24923
:1034C800056182808327C90C06041374F40FB3E7DF
:1034D80037012326F90C2D3B253B8327890C85458D
:1034E8000565B3E737012324F90CEFE01F890D3395
:1034F80005338327490C13973701E35107FA1364FF
:10350800140069BF411122C426C24AC006C62E84CF
:103518003289B6841933FD5701C9130520036D3D5F
:103528008D3511E99533FD57B24022449244024942
:103538003E854101828022854535A13501447DD1F2
:1035480093170401C18363E597003D3B8147E9BFB9
:10355800B307890003C507000504BD3D1D356DF19E
:10356800D1B7011122CC26CA4AC806CE4EC62E842F
:103578003289B6845D3109E97D55F2406244D2440E
:103588004249B2490561828013052003B135D53B14
:1035980019E1DD39D5B722858135E5337DD9B539CE
:1035A80061DD130530030D3DE93B65D50144938981
:1035B800F4FF93170401C18363E59700F1310145D6
:1035C8006DBF7535B30789002380A700639589000F
:1035D8008D330504F9BF2933EDBF411122C413848B
:1035E800C1ACC145228506C6D92C22852244B240E9
:1035F8008545410135AE0111930571001385C1ACB4
:1036080022CC26CA06CEA3030100130430032921C5
:103618009384C1AC83477100E1E77D141374F40F00
:1036280019E0814785A0054597000020E780E070F4
:10363800930571002685CD26F1BF93078031E3C23B
:10364800A7FE4840EFA0A142AA840840EFA021426B
:103658001387740C9307E01863F0E7021305750CE1
:10366800E3E1A7FC9307401F63DC97021307703A56
:103678008D476359970075B79307401F63DAA70012
:103688009327853AF2406244D2443E8505618280A0
:103698001305753A1307201B8947E364A7F8DDB7BC
:1036A8009384743A1307201B9147E36C97F6D9BFAC
:1036B8009307401F63D8A7001307703A9547E35351
:1036C800A7FC85B71305753A1307201B9947F1B76F
:1036D8009384743A9307201BE3E597F4A1475DB7F9
:1036E8002C001385C1AC02C423160100A12E0315BA
:1036F80081001384C1AD752208C00315A1005522AD
:1037080048C00315C100712A08C4EFA041369307C9
:10371800E015E3C4A7F2130585319307901BE3E294
:10372800A7F04840EFA0A134AA840840EFA02134B4
:103738001387740C9307E018E3FCE7F61305750C80
:10374800E3E1A7EE9307401FE3D497F81307703A15
:103758009D4705B701112C001385C1AC06CEF12C8D
:1037680083479100054593F7070295E38347A10036
:10377800014513F7070101CF13F74700094501EB8E
:1037880013F727000D4501E713F517000A05F24066
:10379800056182800111970700009387E7D623A669
:1037A800F1AC9305E100970700009387C7DB138509
:1037B800C1AC23A8F1AC06CE23AC01AC22CCC12C01
:1037C8000347E100930740047D556310F70C8545D6
:1037D8001385C1ACC9241384C1AC9305F1002285BB
:1037E800DD2C8347F100F5FBB53785451385C1AC62
:1037F8006D22C1451385C1ACD92099451385C1AC4B
:10380800052A81451385C1ACC12A99451385C1ACE8
:10381800092D8D451385C1ACEF00006885451385DA
:10382800C1AC0D2985451385C1ACBD2185451385DE
:10383800C1AC6D21B1451385C1ACA92EB145138525
:10384800C1AC492EB1451385C1ACE9269D45138508
:10385800C1ACB9238D451385C1AC11238D451385A2
:10386800C1AC752985451385C1AC9D2B6C001385AA
:10387800C1AC192E8347C1006C001385C1AC93E716
:1038880087002306F100952C0145F240624405614A
:1038980082800323450048450283032305004845E9
:1038A8000283411106C6EFA0012897C7010093873C
:1038B800A7F08C43EF90F139B240410182800111A9
:1038C80022CC85462E8430009305000226CA06CEF7
:1038D800AA84C13729E9834681001377C400937706
:1038E800340093F6060F558FD98F8546300093051F
:1038F800000226852304F1004D3715E58546700042
:10390800930550022685713719ED8347C100098058
:103918001188ED9B5D8C85467000930550022685C5
:10392800230681009D3FF2406244D24405618280B3
:10393800011122CC85462E8430009305000226CA48
:1039480006CEAA84B93729E50347810093174400B6
:1039580085463D8BD98F30009305000226852304C8
:10396800F100253F15E58546700093052002268560
:103978000D3719ED8347C10011800D88F19B5D8CCF
:10398800854670009305200226852306810031377D
:10399800F2406244D24405618280011122CC8546FE
:1039A8002E8470009305100226CA06CEAA84D53547
:1039B80019ED8345C10005880E04DD99C18D2306E4
:1039C800B10085467000930510022685F935F2404E
:1039D8006244D24405618280011122CC85462E843E
:1039E80070009305500226CA06CEAA845D3505E10B
:1039F8008345C1000D88120493F5F5FCC18D23069B
:103A0800B100854670009305500226857935F2404D
:103A18006244D24405618280011122CC70002E8458
:103A280085469305700206CEAD35B247F240858BC8
:103A38002300F4006244056182802E869546930532
:103A4800700381BD011122CC30002E849946930564
:103A5800800206CE3D3D8347910003478100F24036
:103A6800A207BA972310F4008347B1000347A100C7
:103A7800A207BA972311F4008347D1000347C10076
:103A8800A207BA972312F4006244056182802E8649
:103A98008546BD45FDBB011122CC85462E847000AC
:103AA8009305100226CA06CEAA84E53305E18345AC
:103AB800C10005881A0493F5F5FBC18D2306B100F2
:103AC80085467000930510022685C13BF24062448A
:103AD800D24405618280011122CC70002E84854673
:103AE8009305100206CE7533B247F2409983858B51
:103AF8002300F400624405618280011126CA8546CC
:103B0800AE8430009305400222CC06CE2A84EFF022
:103B18005FD835E5854670009305F0032285EFF000
:103B28005FD731EDA24726869305300213D7770079
:103B38009983D98F03C70400228593563700D58F00
:103B480093564700DD8E93575700DD8E93576700D5
:103B5800D58F1D83858BD98F0347C100960785466E
:103B68001377F7FDD98F2306F100EFF01FD301E992
:103B7800854670009305F0032285EFF01FD2F240CE
:103B88006244D244056182802E86854693053002C0
:103B98006FF03FD0011122CC85462E84700093052A
:103BA800000326CA06CEAA84EFF0BFCE19ED8345DE
:103BB800C1007D8885468199C18D2306B1007000BA
:103BC800930500032685EFF05FCDF2406244D244AE
:103BD80005618280011122CC85462E8470009305F0
:103BE800100326CA06CEAA84EFF0BFCA19ED834592
:103BF800C1007D8885468199C18D2306B10070007A
:103C0800930510032685EFF05FC9F2406244D24461
:103C180005618280011122CC85462E8470009305AF
:103C2800200326CA06CEAA84EFF0BFC619ED834545
:103C3800C1007D8885468199C18D2306B100700039
:103C4800930520032685EFF05FC5F2406244D24415
:103C580005618280011122CC85462E84700093056F
:103C6800200326CA06CEAA84EFF0BFC20DE1834521
:103C7800C1000588160493F5F5FDC18D2306B10032
:103C880085467000930520032685EFF01FC1F2409A
:103C98006244D24405618280011122CC85462E847B
:103CA80070009305200326CA06CEAA84EFF07FBED3
:103CB8000DE18345C10005881A0493F5F5FBC18D14
:103CC8002306B10085467000930520032685EFF092
:103CD800DFBCF2406244D24405618280011122CCEB
:103CE80085462E8470009305200326CA06CEAA8432
:103CF800EFF03FBA05E18345C1001E04854693F500
:103D0800F507C18D2306B1007000930520032685B1
:103D1800EFF0BFB8F2406244D244056182800111DD
:103D280022CC85462E8470009305300326CA06CE21
:103D3800AA84EFF01FB619ED8345C1000D888546AA
:103D4800F199C18D2306B1007000930530032685D3
:103D5800EFF0BFB4F2406244D244056182800111A1
:103D680022CC85462E8470009305300326CA06CEE1
:103D7800AA84EFF01FB205E18345C1000D880A044B
:103D8800CD99C18D2306B100854670009305300397
:103D98002685EFF09FB0F2406244D24405618280EC
:103DA800011122CC85462E8470009305300326CA63
:103DB80006CEAA84EFF0FFAD19ED8345C1001204C9
:103DC8008546BD89C18D2306B10070009305300377
:103DD8002685EFF09FACF2406244D24405618280B0
:103DE800011122CC85462E8470009305400326CA13
:103DF80006CEAA84EFF0FFA905E18345C1001E04A1
:103E0800854693F5F507C18D2306B100700093052B
:103E180040032685EFF07FA8F2406244D244056152
:103E28008280011122CC85462E84300093055003F0
:103E380026CA06CEAA84EFF0DFA531E985467000D0
:103E4800930560032685EFF0DFA431E19357540012
:103E58008345C10013977700834781000E049D892D
:103E6800C18D93F7F707D98F2306B1008546300037
:103E78009305500326852304F100EFF01FA201E902
:103E880085467000930560032685EFF01FA1F24078
:103E98006244D24405618280011122CC85462E8479
:103EA80070009305600326CA06CEAA84EFF07F9EB1
:103EB80019ED8345C1001D888546E199C18D23060A
:103EC800B1007000930560032685EFF01F9DF24056
:103ED8006244D244056182802A86B305B04017C582
:103EE80001001305259F6FA0A1069C410947638F18
:103EF800E7000D476382E70205476395E704AA8553
:103F080017C50100130505916FA08104AA8517C57F
:103F1800010013056592CDBF411122C42E8483D5BB
:103F2800850017C501001305659306C6EFA0410279
:103F38004C40130684002244B240138541BF41011E
:103F48006FE0FF86828083D7418A6390A70223931C
:103F5800B18A2394C18A2395D18A2E8617C5010078
:103F68001305C593BE856F90B17E17C50100130573
:103F780065946FA0810F03574500011106CE83D7C2
:103F8800418A6315F702C167F91723A2F18A23A4AE
:103F9800018A85471306F100854513055030A307AC
:103FA800F100EF603133F2400561828017C50100EE
:103FB80013054582EFA0610BFDB7411193970501E9
:103FC80022C406C626C24AC0C1872E8463D107020E
:103FD80003C55181EF00206E19C1EF0020672165EC
:103FE800218DB2402244924402494101828093F7D4
:103FF800150091CF17160020130686E59385418991
:1040080003C55181EF60310013451400D9BF93F700
:10401800850099CF83C751811307400681465146D1
:10402800A14503D5418AEF6061771345840055BFE8
:1040380093F705010145D5D7938781819C43854432
:104048006389970081C70D49637DF9101345040101
:1040580049BF03D5418AEFE0AFEA03D7418A11E9A6
:10406800C167F917E314F7FE138581B6EFE0AFF2E5
:10407800F1BF3A85EF10303575152396A18A13855F
:1040880081B6EFE0CFED83D7C18A636FF50813855A
:1040980081B6EFE0CFECAA8517B5010013050574CA
:1040A800EF90116B1386C18A938501C0138581B681
:1040B800EFE00FF71375F50F23A8018A41F903D62E
:1040C800C18A01478146ED4503D5418A239FC188AE
:1040D800EF40504723A0A18A6300050E03D6E1896B
:1040E800938501C097000020E780200A9385C18945
:1040F800014603D5418AEFE02FE2AA8529CD17B5FD
:1041080001001305A56FEF90B1648D4723ACF180D2
:10411800ED451385C189EF40B05A0946C14503C52D
:104128005181EF00502B1DB79384018B9840A9470C
:10413800E3EAE7F61146C14503C55181EF00B0290E
:104148009C4017B501001305656A850723A8F18A05
:10415800EF90B171E5BD854723ACF1802396018AC4
:104168006DBF03D6C18A01478146ED4503D5418A13
:10417800239FC188EF40103D23A0A18A15CD03D607
:10418800E189938501C097000020E78000009385AE
:10419800C189014603D5418AEFE00FD8AA8511C924
:1041A80017B5010013054566EF90915A23AC21819C
:1041B80085B723AC91805DB7894723ACF180B1BF47
:1041C8007D15954763E4A71217B701001307075F2A
:1041D8000A053A951C41411122C406C6BA972E8495
:1041E800828717B50100130565702244B24041016A
:1041F8006F90B16703C7250099476315F7002E85AF
:10420800EFF07FD717B501001305456FF9BF03C756
:10421800250095476318F70CC16703D7418AF9173A
:1042280003D5A500630FF700EF60513117B5010002
:104238001305C56DEF90716317B501001305856F00
:104248006DB72392A18A83D7E50009661306069005
:104258002393F18A83D7050103C551812394F18AF9
:1042680083D72501A1452395F18AEF00D01603567F
:10427800E4008355A40017B501001305656AEF90A3
:10428800314D5DBF17B501001305856BB9BF83C5F7
:10429800250091476397F50017B501001305C56B15
:1042A800A9B799476390F5022285EFF0DFCC8345E3
:1042B800640017B501001305E56B2244B2404101C3
:1042C8006F9011499547639AF50083471400E9F701
:1042D80017B501001305C56B09BF17B50100130514
:1042E800A56BE1BFB2402244410182808280411126
:1042F80013060008938541B7138541BF06C6EFE052
:104308002FC7B24013060008938581AE138581B686
:1043180041016FE0EFC50111B7F507008146300094
:10432800E105194506CE97000020E78020B111C9A4
:1043380017B5010013050554EF903153F24005619C
:104348008280834681000346910097B501009385DA
:10435800655417150020130545B3EF90D1518346D6
:1043680081000346910097B501009385A552171562
:104378000020130525B0EF901150C9B7411106C6AA
:10438800EFE09F8885679387C70763D3A7003E85BB
:104398008567938707C86353F5003E85FD77938744
:1043A80007383E95098597170020A38EA7AA9387FB
:1043B80081889C43B24097160020938626AA171737
:1043C80000202303F7AA35468545014541016F3092
:1043D8009064011117050000130565BE06CE22CCB6
:1043E80026CAEF00703A938451812380A4002537B0
:1043F800994705442315F100130691009307803E61
:104408008545130550302316F100A3048100EF60A1
:10441800616C171600201306E6A6CD45130570300B
:10442800EF60416B17160020130646A3B545130528
:104438006030EF60216A1306A10089451305103129
:10444800EF6041697000894513052031EF6081688C
:1044580017160020130686A1D5450145EF40004AEE
:104468009305000A0D45EF2070129305000A1145C7
:10447800EF20D0117000914513057040A30381000F
:1044880023048100A304810002C623050100EF5024
:10449800A12E13067100854513050040EF50C12D6C
:1044A8003000854513051040EF50012D1306A1007B
:1044B800854513052040EF50212C130691008545B2
:1044C80013055040EF50412B7D55EF4000517D556D
:1044D800EF60D014EFD0BFD117050000130525A158
:1044E800EFE06F9CC1671387418AF9171CC3232229
:1044F80007001385C188EF40414203C50400854584
:104508007523F2406244D244056182804111054519
:1045180006C622C426C2EFD0BF901305400597F007
:10452800FF1FE7808069EFE0CFDEEFD03FB017B51F
:1045380001001305255FEF905133EFF0AFA5EFE0D1
:104548002FC40545EFE0CFC0EFE00FECAA84EFE001
:104558008FF72A84EFE00FBCA2850545EFE04FB83E
:10456800EFE00FBE1305800C97F0FF1FE780E07C9B
:10457800EFE04FBAEFE0CFBC1305800C97F0FF1FB8
:10458800E780A07BEFE00FB9A2850545EFE04FB5C6
:10459800EFE00FBB1305800C97F0FF1FE780E07971
:1045A800EFE04FB7EFE0CFB91305800C97F0FF1F8E
:1045B800E780A078EFE00FB6A2850545EFE04FB29F
:1045C800EFE00FB81305800C97F0FF1FE780E07647
:1045D800EFE04FB4EFE0CFB60145EFE06FB7856786
:1045E800938737CE63C59702EFE03FFF054597F005
:1045F800FF1FE7808074EFE0CFD8094597F0FF1FD1
:10460800E780A073014597F0FF1FE780204EEFD0A9
:104618005FD7EFD0DFE9EF60A174EFF09FDBEFF039
:104628001FCDEFE06FC797F0FF1FE780E07423AC62
:1046380005FE1C4191E7010001000CC18280BA8788
:1046480003A787FF6DFF23ACB7FE82801DC1834699
:10465800E5FF1307F00F9147639EE600411106C678
:1046680097000020E780C057B24081473E8541014E
:10467800828095473E85828001E901458280014517
:10468800B240224441018280411122C42A8421057A
:1046980042059305D004418106C697000020E780B3
:1046A800804A71DDFD57232005002312850023036E
:1046B800F5002105F1B71387418B1C43411122C432
:1046C80026C24AC006C601440149BA8489E7A165E1
:1046D8009D2D0DC401A803C7E7FF6318A7021DC8D5
:1046E800A165E9269840832784FF6317E40223AA7B
:1046F800F18AFD57232C04FE230FF4FE2285B240D5
:104708002244924402494101828011E03E8983A7F4
:1047180087FF6DBF3E84E5BF232CF9FED9BFA1CD2D
:10472800411122C406C62A849727002083C717523E
:104738002E856369F400EFF07FF10D45B240224405
:104748004101828083A785FF99E703C7E5FF9307A7
:10475800F00F6306F700EFF07FEF1545C5B7238F1D
:1047680085FE1385418BEFF09FEC22852244B240F1
:10477800A165410125AE1545828023AA018A828060
:104788009387C18C9C4399E33E85828003D7270099
:104798006316B70003C70700E308A7FEDC47E5B7C1
:1047A8004111939705014AC006C622C426C2C18793
:1047B8002E8963D00702EFF01FF019C1EFF01FE94F
:1047C80021653345A900B24022449244024941017F
:1047D8008280AA860145E5D901443D47B3578940FF
:1047E800858B95CB9387018C8443BD4791E28147A4
:1047F800A2978E070545BE9433158500131405014D
:104808009C40C8404180829723A0040023A2040052
:10481800334524014DBF0504E312E4FC0144CDBF38
:10482800972700209387C73E9C53411122C406C690
:104838001384C18195C7829723AEA1800840B747EA
:1048480003009387D73F3305F502B7A72600938760
:1048580037ECB24022443E9523AEA18041018280CC
:10486800972700209387873E18409C4BBA9723AE22
:10487800F180E9B79387818B90439726002083C600
:10488800F63C814713F7F70F6360D70A1727002014
:104898000347F74F914763E0E70A9727002083C74C
:1048A800A753918BC9EB0111680006CE22CC26CA0A
:1048B800EFC00050FD56630FD50C324797270020F4
:1048C80083C7373663F3E70C172700201307073829
:1048D8004047172700200347E7346305D406058BB4
:1048E80021CF51473304E40263F1870A970000207F
:1048F800E780C0AEB2476373F400A2871727002091
:1049080003473732998F3E95972700209387473082
:104918008387470163CD0702B707C0A86369F5021B
:10492800B70740573E9525A085071397170032977C
:104938000357E7FF21DB8280130790023304E40268
:1049480005805DB762076187635707001D8D19E908
:104958003705C0A801A8E37BF5FE3707C0A8B30751
:10496800F7403E95972700209387872ADC53829744
:1049780009ED97270020938727419C4F99C7EF108F
:10498800C125EF10417EEF10A119F2406244D244D4
:1049980005618280972700209387472BDC47E386B1
:1049A800A7FE172700201307A72683464701BA84C6
:1049B800858A9DC65144338487029727002083C780
:1049C8005726E3F487FC97000020E78020A197276B
:1049D800002083C717251D8C2295838744011DBF9E
:1049E80013049002338487020580C1BF2A9609E523
:1049F80082800505A30FB5FEE31DC5FED5BF81471F
:104A08003307F5000307070019E33E858280850711
:104A1800C5BF01112E8626CAAA841315060193055F
:104A2800F004418122CC06CE32C697000020E780F0
:104A380080112A8419C53246A68597F0FF1FE780A2
:104A4800C0742285F2406244D24405618280814765
:104A58006314F600054582803307F5008507B386A1
:104A6800F5000347070083C6F6FFE383E6FE01452A
:104A780082809307F6FFBE952A966313C50082804D
:104A8800FD1583C715000505A30FF5FEFDB7814782
:104A980011E9014582803307F50003470700E31A4F
:104AA800B7FE8507E319F6FE0545828097270020A3
:104AB80083C7D719637FF5001387818B9317150078
:104AC80008433E9583570500DD8D2310B500014549
:104AD80082800D458280FD57011117270020232D64
:104AE800F7169387C18C22CC80434EC697290020A5
:104AF8009389091226CA4AC852C456C206CE5AC059
:104B08002A8981444E8A972A0020938A2A141844B5
:104B180081476374E900B307274103A749021CC40E
:104B280009CB03A7CA0063F6E7001727002023254F
:104B3800F712B1E78355240085ED5C44B1E823A65C
:104B4800F18C032BC400228597000020E7804009E0
:104B58005A8455FC83274A0295CF6244F240D244D6
:104B68004249B249224A924A024B05616FF09FD0EE
:104B780003450400EFF09FF35C4081CB1CC48357CE
:104B88002400C5DFA2844044E9B71C44DDD7C5BF73
:104B9800DCC445BFF2406244D2444249B249224A89
:104BA800924A024B056182809727002083C7170A23
:104BB8006371F5021387818B93171500084393C51A
:104BC800F5FF3E9583570500FD8D2310B50001457F
:104BD80082800D4582809727002083C7370763644A
:104BE800F50001458280411122C426C24AC006C68A
:104BF8002A842E89B284EFF0BFB801C504C50545E3
:104C08002DA0936504F0C205C1814145970000209D
:104C1800E78060F30DE197270020938767FF9C5B8F
:104C280081C7A285114582970145B240224492442A
:104C38000249410182809387C18C9C438DE323A65E
:104C4800A18C85472326050004C5231125012300CF
:104C58008500A300F5002322050055B7BA87D84779
:104C680075FFC8C7F9BF4DC539715AD0138B018C70
:104C780022DC26DA4AD84ED652D45ECE66CA6AC834
:104C88006EC606DE56D262CC3689328AAE89AA84CE
:104C980001445A8DB94D854BF94C03270B00131C61
:104CA8003400937AF40F62971C43B1EF13B5FA00FE
:104CB80013451500B3978B0063F65D01930714FF46
:104CC800B397FB0093950701C1815286EFF0BFF0BF
:104CD8001DC983270D000145E29784C323A237012C
:104CE8006304090023005901F2506254D254425916
:104CF800B259225A925A025BF24B624CD24C424D44
:104D0800B24D216182800504E31994F92145E9BF78
:104D180009458280411122C426C24AC006C6AA8417
:104D28002E893284EFF03FEBCA852685EFF05FA528
:104D380009C940C10145B240224492440249410197
:104D480082802145CDBF411122C426C24AC006C671
:104D5800AA842E89EFF0DFA22A8419C12311050045
:104D68009727002083C787EE639497002392218DAD
:104D7800CA852685EFF05FE3014511E01945B24089
:104D8800224492440249410182807547636CA7041A
:104D98001387018C1443411126C293143500A6963B
:104DA800944222C406C6AA873A8409459DC613B50B
:104DB800F7003947134515006373F700C517854594
:104DC800B395F500C205C181EFF0FFF71C4001451E
:104DD800A69723A0070023A20700B24022449244CA
:104DE8004101828009458280411106C6EFF05F9932
:104DF80009C50845B240410182800145E5BFF54734
:104E080063EFA7049387018C9C4313173500BA9767
:104E18009843894731C7011126CA06CE9334F50055
:104E280022CCB94793C4140063F3A7004515054481
:104E38003314A400420441802EC62685A285EFF0D3
:104E4800BFFA8947324611C5A2852685EFF0BFD83B
:104E58008147F2406244D2443E8505618280894799
:104E68003E858280239EA18A239FB18A8280411138
:104E780006C623A4A18C0295B2409727002023A13F
:104E8800A7DE014541018280994763E9B7008A0599
:104E9800972700209387C7DDBE9588C1828041117E
:104EA80006C6EF50F172714681451725002013059B
:104EB80025DCEFF0BFB3130640028145172500201B
:104EC8001305C5D8EFF09FB223A6018C23A4018C4B
:104ED8009727002083C787D513D527008D8B3E954C
:104EE8008D473305F5029305101035051375F50F39
:104EF80097270020238DA7D499473305F50213057A
:104F0800050F97000020E78000C423A0A18C35C9B5
:104F1800994717260020034686D33306F6028145B3
:104F28001306060FEFF09FAC9387018C9C43938781
:104F3800070F23A8F18C17270020034747D10A073A
:104F4800BA9723ACF18AEFF05F834D269387018DE2
:104F580098439727002083C777CF93962700BA9660
:104F6800170600001306068490C29386270085075B
:104F780093F7F70F8A0797250020A389D5CCBA970E
:104F880090C3B240410182809727002083C717CC85
:104F9800172700200347A7CB63F1E7021387018D8A
:104FA80018439386170017260020A301D6CA9396A4
:104FB8002700369708C33E8582809307F00FE5BF28
:104FC8001C41638F071841777D8FB70600208947FA
:104FD8006319D7180357450063050718411122C400
:104FE80019462A849305F00F590506C6EFF03FAA23
:104FF80005478D476301E5161C4481CB58589947EE
:10500800630B0714185C630807141306C003814573
:10501800172500201305C5BFEFF05F9D1306C003D9
:10502800A285172500201305A5BE97F0FF1FE7806E
:10503800C0159727002083D767BE97260020938640
:1050480026BD99E793070010172700202318F7BCFF
:105058009727002083C7A7BC91E78547172700201B
:10506800230FF7BA9727002083C777BB91E7ED474F
:1050780017270020A305F7BA9727002083C747BA48
:1050880091E7954717270020230CF7B897270020AA
:1050980083C717B991E7854717270020A302F7B8F8
:1050A8009727002083C717B899E783C706011727F2
:1050B8000020A309F7B69727002083C787B691E792
:1050C800D14717270020230EF7B49727002083C75E
:1050D80007B695E7172700200347C7B413168701BB
:1050E80061869307C002634806009377170093B759
:1050F80017009387D70217270020230AF7B29727AC
:10510800002083C717B295E717270020034787B108
:105118001316870161869307C002634806009377D8
:10512800170093B717009387D70217270020A30A01
:10513800F7AE8347D40191E7894717270020A307D3
:10514800F7AE9C5691C78297972700202393A7B064
:10515800EFF0FFD48147B24022443E85410182806E
:1051680089473E858280011122CC06CE2A842EC62C
:10517800EFF00FEBB245F240818D33A5A5022295E1
:1051880062441375F50F05618280011122CC06CEA9
:105198002A842EC6EFF0CFE8B245F240818D33A5C0
:1051A800A502229562444205418105618280011170
:1051B80022CC06CE2A842EC6EFF08FE6B245F24006
:1051C800818D33B5A50222956244056182809727B7
:1051D80000209387E7A3985725C3411122C426C20C
:1051E80006C6BE84029717270020035787A62A847D
:1051F80041C7BA876373A700AA87C207C183BA8663
:105208006373E400A286C206C182958F5147635535
:10521800F706DC5491C38297854717270020230996
:10522800F7B6EF00716097270020239487A2B24059
:1052380022449244410182809727002083C747B5C2
:105248009DE797270020938727B483C79700850792
:1052580093F7F70F17270020A30CF7B2A18B9DC770
:105268008547172700202315F7B26F00D1619727CC
:105278000020A38F07B0D5BF9727002083C747B169
:10528800DDD72244B24092444101C5B782809727B6
:1052980000209387E797D857011122CC06CE3E8489
:1052A80001C72AC60297324511CD23AAA18C17F54A
:1052B800FF1F13052514EFF09FBBF2406244014520
:1052C800056182808307440163DD0700972700207A
:1052D80023AA079897F7FF1F9387670C23AAF18CD7
:1052E800F9B797F7FF1F9387670FCDBF011122CC3E
:1052F800172400201304C491084406CE26CA4AC8BD
:1053080001E90545F2406244D24442490561828080
:105318005C58E5DB185C75D77000854582971844A2
:10532800B247E300F7FE9305E00417250020035574
:10533800E58E97000020E7800081172700202325AD
:10534800A79261D1172600200356468D9305F00FCA
:10535800EFF0CFE98144172900201309298F9727F7
:10536800002083C7C78B0326C90163C1F4023285B5
:1053780097000020E780C08601459727002023A5D5
:10538800078E9727002023A3078EADBF97250020FF
:1053980083D5C588B38795020844185C898185043C
:1053A8003E9508C2029765BF411122C41724002008
:1053B800130404861C4426C206C64AC0972400204B
:1053C8009384C48891EBC84C35E9B2402244924496
:1053D80002490145410182801C5CF5D7DC4C99EFFC
:1053E8009305E004172500200355458397F0FF1F18
:1053F800E78060759727002023A8A786C84C61D549
:1054080017260020035686819305F00FEFF00FDE74
:1054180001499727002083C78780D04CE355F9FAC4
:105428009715002083D5857F338525031C44898102
:1054380005093E951C5C08C28297E1BF97F0FF1FE3
:10544800E780007A9727002023A00782972700206B
:1054580023AE07809DBF011156C2971A0020938A78
:105468002A7B83A78A0022CC4AC84EC606CE26CA03
:1054780052C45AC0AA892E8432896385072203A799
:105488004A03630707147D476366A714971400202F
:105498009384C47B03AAC40163170A0A956593859C
:1054A80015E0171500200355657797F0FF1FE78073
:1054B80080699717002023A9A77A2A86630A05100E
:1054C80083A74A0303A58A009715002083D505758D
:1054D8008981829783A78A0003AAC401171700202D
:1054E8002326F7788947639CF908C1476312F40EAD
:1054F8009715002083D58572938505FC9147B3C520
:10550800F5028A05D29503C705009307A005631D18
:10551800F70A83C715006399370B4A8522869105D8
:1055280097F0FF1FE78060C6DC4C528563934715F0
:105538000145F2406244D2444249B249224A924A61
:10554800024B056182809850E38EE7F89565938554
:1055580025E0171500200355656C97F0FF1FE780BD
:10556800805E2A8A35C52A8683A74A0303A58A004E
:105578009715002083D5856A89818297A5B78D47BD
:10558800639DF900C1476315F4049715002083D57E
:10559800E568938545FDF199B5B79147639AF90098
:1055A800631834039715002083D54567A115E5B71F
:1055B800C147639FF900A14763EC87009715002056
:1055C80083D5C565C115C1BFDC4C52856397470DAE
:1055D800294585B71307F006568B6361A70A130A96
:1055E80005FE1947334AEA021717002003570763D5
:1055F800971A0020938A8A65330AEA023E9A83A79B
:105608000A026395470183A4CA019DE49305E00457
:10561800171500200355856097F0FF1FE780A052FB
:10562800AA845DD583274B039715002083D5055F92
:105638002A8689815285829791451307A005898119
:1056480093972500A69783C607006393E60483C64D
:105658001700639C360385058A052286A6954A8528
:1056680097F0FF1FE78060B283A7CA01E38297EC37
:10567800268597F0FF1FE780A0565DBD1307E0075A
:10568800E368A7F4130A05F985B783D5270045BF52
:1056980083A7CA01E38E97F2268597F0FF1FE7805C
:1056A80020543DB7971700209387475ACC4F8DD188
:1056B80091479306A0058983139727002E970346E1
:1056C8000700E317D6F003461700631C3601850769
:1056D8008A072286BE954A8597F0FF1FE780E0AAD1
:1056E80081BD83572700C1BF971700209387475272
:1056F800984739C79C5FA9C705476313E50441115B
:1057080022C41714002013046454504C06C60DC656
:1057180008509715002083D5655089818297484C99
:1057280097F0FF1FE780C04B9717002023AE075262
:105738009717002023AC0752B240224441018280CF
:1057480082800111171700201307874C4EC6832942
:10575800870022CC26CA4AC806CE52C456C2AA849A
:105768002E843289638A09201C5FBA8A99EB2945FD
:10577800F2406244D2444249B249224A924A0561FF
:1057880082805C5BEDD7FD4763E9A70E971900207F
:105798009389C94B83A7C901B1CB03A58A0083A705
:1057A80009026395A70689476393F408C147E31084
:1057B800F4FC17150020035565469147130505FCB1
:1057C8003345F5029317250003A5C9012286CA852A
:1057D8003E959307A0052300F500A3009500110549
:1057E80097F0FF1FE780609A014559B79305E004D9
:1057F800171500200355854297F0FF1FE780A03456
:105808009717002023A2A74649F995B783A74A030B
:1058180003A6C9019715002083D545408981829741
:1058280083A78A00171700202322F744ADBF8D47AE
:10583800639EF400C147E31CF4F2171500200355DA
:10584800E53D130545FD9377C5FFBDBF9147639AB5
:10585800F400E31E94F0171500200355253C21158C
:10586800DDB7C147E395F4F0A147E3E287F01715E8
:1058780000200355A53A4115F9B79307F00663EAE6
:10588800A706930705FE1947B3C7E70217170020B5
:105898000357C738171A0020130A4A3BB387E70291
:1058A800BE998327CA01A9CF83270A02639A3707BB
:1058B8000325CA0191461308A005FD5593D7260074
:1058C800C207C183139727002A9703460700631D61
:1058D8000607834817000356270063959806B30602
:1058E800D64063CF860485078A072286CA853E95F7
:1058F800C5BD9307E007E3ECA7E6930705F979B779
:105908009305E004171500200355453197F0FF1F54
:10591800E78060239717002023A8A73451F581BD9D
:1059280083A74A030326CA019715002083D5052FAC
:1059380089814E8582979717002023A937338DBF19
:10594800A300B700B2869DBFB38586001716002056
:105958000356C62C9105130606FCE3FAC5E01306A8
:1059680034001376C60F1106B29623000701A30070
:1059780097002311D70085BF971700209387072D1D
:10598800D44FBE89A1C203A5C90191461308A00539
:10599800FD5593D72600C207C183139727002A977E
:1059A80003460700631606058348170003562700B9
:1059B80063989800B306D640E3D786F2A300B700F1
:1059C800B286C1BF8357C700171500200345252598
:1059D8009305E0043305F5024205418197F0FF1F66
:1059E800E78060169717002023A0A72849FD41B338
:1059F80017160020035686229715002083C52522F6
:105A0800B385C502338686001106E3E2C5D681BF99
:105A18000145828083C705002300F50083D7250050
:105A2800A300F50083D72500A1832301F50083C7D0
:105A38004500A301F5001145828023AE018C23ACFB
:105A4800018C828029C1411126C206C622C4AA84BB
:105A580001458DC52E842285414697A50100938571
:105A680065F497E0FF1FE780407283C7040005458F
:105A78002306F40083C71400A306F400B2402244AE
:105A880092444101828001458280011122CC26CABC
:105A980006CE0947AA8432846383E50441468147D8
:105AA800639BC500638FE6006397B6001DA8414756
:105AB8008147638FE600F2406244D2443E85056127
:105AC80082808A852285EFF0FFF741468A8521A8E2
